:100000000C943D220C946C220C946C220C946C2267
:100010000C946C220C946C220C946C220C946C2228
:100020000C946C220C946C220C946C220C946C2218
:100030000C946C220C94A4510C946C220C946C22A1
:100040000C946C220C946C220C946C220C946C22F8
:100050000C946C220C946C220C946C220C946C22E8
:100060000C946C220C9432D90C946C220C945ED9B2
:100070000C946C220C94ADA40C946C220C946C2205
:100080000C946C220C946C220C946C220C946C22B8
:100090000C946C220C946C220C946C220C946C22A8
:1000A0000C946C220C946C220C946C220C946C2298
:1000B0000C946C220C946C220C946C220C94554D74
:1000C0000C946C220C946C220C946C220C946C2278
:1000D0000C946C220C946C220C946C220C946C2268
:1000E0000C946C2223474C4751472D475647A04755
:1000F000A0472D477447A04779477E4783478847E5
:10010000604765476A472D476F47A04728475B47C9
:100110008D4792479647A047A0479A47507265700F
:100120006172696E6720666F7220736C6565703AE4
:1001300049276D20636F6D706C6574696E6720610F
:100140006E792020717565756564206D6F766573B5
:100150002E004368616E67696E672046696C616D49
:10016000656E743A202049276D20636F6D706C6551
:1001700074696E6720616E7920207175657565649C
:10018000206D6F7665732E00494E56414C494420D0
:10019000544F4F4C3A2020202020202049207265C7
:1001A000636569766564206120636F6D6D616E645F
:1001B000666F7220546F6F6C2023322C206275742E
:1001C000204920206F6E6C792068617665206F6E03
:1001D0006520546F6F6C2E2000494E56414C4944A7
:1001E00020434F4D4D414E443A202020204920725B
:1001F00065636569766564206120636F6D6D616E0E
:1002000064666F7220612068656174656420706C3B
:100210006174652C20627574204920646F6E2774A8
:100220002068617665206F6E6500492073617720D4
:100230006120676C6974636820696E206D7953442E
:1002400020636172642E2049662074686973206996
:100250007320746865206669727374206572726FAA
:10026000722C2074727974686973206D6F64656C88
:1002700020616761696E2E20202000492074696D1D
:100280006564206F7574207768696C652020206133
:100290007474656D7074696E6720746F2068656131
:1002A0007420206D792065787472756465722E00F3
:1002B000492074696D6564206F7574207768696C76
:1002C00065202020617474656D7074696E67207498
:1002D0006F206865617420206D7920706C61746690
:1002E0006F726D2E00507265706172696E67206664
:1002F0006F7220736C6565703A49276D20636F6F6C
:100300006C696E67206D792020202020206865614F
:100310007465727320616E6420676F696E67207404
:100320006F6D79207761697420706F736974696F7C
:100330006E2E004368616E67696E672046696C6166
:100340006D656E743A202049276D20676F696E676E
:1003500020746F206D792077616974706F73697490
:10036000696F6E2E0052657374617274696E6720D6
:10037000746865204275696C64005468697320690B
:1003800073206E6F742074686520783367207665FB
:100390007273696F6E204920776F726B206265738C
:1003A0007420776974682E20466F722068656C70BF
:1003B000207365653A206D616B6572626F742E63A0
:1003C0006F6D2F68656C70202020004920616D20C2
:1003D00061205265706C696361746F722E202054C5
:1003E000686973206275696C6420697320666F7236
:1003F000202020616E6F7468657220626F742E20F9
:100400005365653A2020206D616B6572626F742EB2
:10041000636F6D2F68656C7000546865205265705D
:100420006C6963617430720049276D2043616E63AB
:10043000656C6C696E672E2020202020506C6561F1
:10044000736520576169742E0020004865617465EA
:1004500072732073687574646F776E202020206437
:10046000756520746F20696E61637469766974794B
:10047000202020004578747275646572204F76657F
:100480007268656174212020536F667477617265AC
:100490002054656D70204C696D69742052656163EC
:1004A0006865642120506C656173652020202020E0
:1004B00053687574646F776E206F72205265737421
:1004C0006172740048656174696E67204661696C89
:1004D00075726521202020204D7920657874727511
:1004E0006465727320617265206E6F7468656174F3
:1004F000696E672070726F7065726C792E20202093
:10050000436865636B206D7920636F6E6E656374FD
:10051000696F6E730048656174696E672046616932
:100520006C75726521202020204D792065787472C9
:10053000756465727320617265202020206C6F7372
:10054000696E672074656D70657261747572652E71
:1005500020436865636B206D7920636F6E6E656301
:1005600074696F6E730048656174657220457272BC
:100570006F72212020202020202049276D207265C5
:100580006164696E67206F7574206F6620207261E8
:100590006E67652074656D706572617475726573E0
:1005A0002E20436865636B206D7920636F6E6E65E6
:1005B0006374696F6E73004865617465722045727B
:1005C000726F7221202020202020204D7920746518
:1005D0006D706572617475726520726561647361B6
:1005E0007265206661696C696E672120506C656177
:1005F000736520436865636B206D7920636F6E6E51
:10060000656374696F6E730093026900000069008E
:10061000EE016900000069002601B8010000000039
:1006200020065500000055002D085500000055001B
:100630004D0A550000005500400CAB000000AB0017
:100640002D095500000055002D08550000005500EB
:100650004D0AAB000000550000000001C00D550020
:10066000000055002D08560100000000C00D2001BB
:100670005311BC005B12B10100000000C00DC800A6
:1006800000001400C00DC80000001400910E90017D
:10069000000014005A10900100001400C00D200347
:1006A00000000000C805C80000001400C805C8000C
:1006B00000001400C805C80000001400DD04B004E8
:1006C000000014007505C800000014007505C8007E
:1006D000000014007505C800000014009704B00461
:1006E00000000000B807550000005500B909AB0034
:1006F0000000AB007D06550000005500C805550000
:1007000000005500B807AB000000AB00C80555005D
:1007100000005500DD04550000005500C8055500D7
:1007200000005500B8075500000055007D06560131
:10073000000000003F03550000005500FA0C550072
:10074000000055003F03550000005500B909550051
:10075000000055003F035500000055002D095500CD
:10076000000055003F03550000005500EA0A5500FF
:10077000000055003F03550000005500B909AB00CB
:1007800000000000534420436172642052656D6F85
:100790007665640024F404D9201BC40C5C0E980414
:1007A000C4095F0265077101F405F900FB04B30099
:1007B00048048700C103690058035500030345003E
:1007C000BE023A008402310053022A0029022500A9
:1007D00004022000E4011C00C8011900AF01170049
:1007E00098011400840113007101100061011000D0
:1007F00051010E0043010D0036010B002B010B00CF
:1008000020010B00150109000C010900030108007B
:10081000FB000800F3000800EB000700E4000600FE
:10082000DE000600D8000600D2000600CC0005005D
:10083000C7000500C2000500BD000400B9000400A7
:10084000B5000400B1000400AD000400A9000400DC
:10085000A5000300A20003009F0004009B0003000A
:10086000980003009500020093000300900003002D
:100870008D0002008B000300880002008600020049
:1008800084000300810002007F0002007D0002005E
:100890007B00020079000200770001007600020070
:1008A0007400020072000100710002006F0002007B
:1008B0006D0001006C0002006A0001006900020086
:1008C000670001006600010065000100640002008D
:1008D0006200010061000100600001005F00020091
:1008E0005D0001005C0001005B0001005A00010096
:1008F0005900010058000100570001005600010096
:100900005500010054000100530000005300010095
:100910005200010051000100500001004F00010091
:100920004E0000004E0001004D0001004C0001008F
:100930004B0000004B0001004A000100490001008B
:100940004800000048000100470001004600000088
:100950004600010045000000450001004400010080
:10096000430000004300010042000000420001007B
:100970004100000041000100400001003F00000074
:100980003F0001003E0000003E0001003D0000006D
:100990003D0001003C0000003C0000003C00010064
:1009A0003B0000003B0001003A0000003A0001005B
:1009B0003900000039000100380000003800000054
:1009C0003800010037000000370001003600000049
:1009D0003600000036000100350000003500000040
:1009E0003500010034000000340000003400010034
:1009F000330000003300000033000100320000002B
:100A0000320000003200010031000000310000001F
:100A10003100010030000000300000003000010013
:100A20002F0000002F0000002F0000002F00010009
:100A30002E0000002E0000002E0001002D000000FE
:100A40002D0000002D0000002D0001002C000000F2
:100A50002C0000002C0000002C0001002B000000E6
:100A60002B0000002B0000002B0001002A000000DA
:100A70002A0000002A0000002A00010029000000CE
:100A800029000000290000002900000029000100C1
:100A900028000000280000002800000028000000B6
:100AA00028000100270000002700000027000000A8
:100AB000270000002700010026000000260000009B
:100AC000260000002600000026000100250000008E
:100AD0002500000025000000250000002500000082
:100AE0002500010024000000240000002400000074
:100AF0002400000024000100230000002300000067
:100B00002300000023000000230000002300000059
:100B1000230001002200000022000000220000004B
:100B2000220000002200000022000100210000003D
:100B30002100000021000000210000002100000031
:100B40002100000021000100200000002000000022
:100B50002000000020000000200000002000000015
:100B600020000000200001001F0000001F00000006
:100B70001F0000001F0000001F0000001F000000F9
:100B80001F0001001E0000001E0000001E000000EB
:100B90001E00000024F4D43050C38E20C2A240179F
:100BA000828B7011127A910D816CD90AA861E108CB
:100BB000C7586607615143061E4B5D05C145A70432
:100BC0001A411104093D9803713931034036DB02A3
:100BD00065339102D4305402802E1D02632CEE0145
:100BE000752AC501B028A001102781018F25640155
:100BF0002B244B01E0223401AC211F018D200D017B
:100C0000801FFC00841EED00971DDF00B81CD20081
:100C1000E61BC600201BBC00641AB200B219A80073
:100C20000A19A0006A189900D117910040178B008B
:100C3000B516840031167E00B31579003A1573009D
:100C4000C7146F0058146A00EE136600881363001F
:100C500025135E00C7125B006C125700151254007A
:100C6000C111510070114F0021114B00D6104900E5
:100C70008D1047004610440002104200C00F400093
:100C8000800F3E00420F3C00060F3B00CB0E3800A9
:100C9000930E37005C0E3500270E3400F30D320042
:100CA000C10D3100900D3000600D2E00320D2D0071
:100CB000050D2C00D90C2B00AE0C2900850C290049
:100CC0005C0C2700350C27000E0C2600E80B2400D6
:100CD000C40B2400A00B23007D0B23005A0B210022
:100CE000390B2100180B2000F80A1F00D90A1E003A
:100CF000BB0A1E009D0A1D00800A1D00630A1C001D
:100D0000470A1B002C0A1B00110A1A00F7091A00D7
:100D1000DD091900C4091900AB091900920917006F
:100D20007B091800630917004C09160036091600E4
:100D3000200916000A091500F5081500E00814003E
:100D4000CC081400B8081400A4081400900813007C
:100D50007D0812006B0813005808120046081200A4
:100D600034081100230811001208110001081100B5
:100D7000F0071000E0071000D0071000C0071000B7
:100D8000B0070F00A107100091070E0083070F00A6
:100D900074070F0065070E0057070E0049070E0085
:100DA0003B070D002E070E0020070D0013070D0056
:100DB00006070D00F9060C00ED060D00E0060C001C
:100DC000D4060C00C8060C00BC060C00B0060C00D3
:100DD000A4060B0099060C008D060B0082060B0082
:100DE00077060B006C060B0061060A0057060B0025
:100DF0004C060A0042060A0038060A002E060A00BF
:100E000024060A001A060A001006090007060A004E
:100E1000FD050900F4050900EB050900E2050900DC
:100E2000D9050900D0050900C7050900BE0509005C
:100E3000B5050800AD050800A50509009C050800DA
:100E4000940508008C050800840508007C0508004E
:100E5000740508006C050700650508005D050700BE
:100E6000560508004E050700470507004005080025
:100E700038050700310507002A050700230507008C
:100E80001C050600160507000F05070008050600EB
:100E900002050700FB040600F5040700EE04060047
:100EA000E8040600E2040700DB040600D50406009F
:100EB000CF040600C9040600C3040600BD040600F2
:100EC000B7040600B1040500AC040600A604060041
:100ED000A00405009B04060095040500900406008C
:100EE0008A04050085040500800406007A040500D4
:100EF00075040500700405006B0405006604050018
:100F0000610405005C040500570405005204050057
:100F10004D04050048040500430405003E04040098
:100F20003A04050035040500300404002C040500D3
:100F300027040400230405001E0404001A0404000E
:100F400016040500110404000D0404000904050042
:100F50000404040000040400FC030400F80304007B
:100F6000F4030400F0030400EC030400E8030400AD
:100F7000E4030400E0030400DC030400D8030400DD
:100F8000D4030400D0030400CC030400C80303000E
:100F9000C5030300950000000046696E6420746874
:100FA000652034206B6E6F6273206F6E2000950198
:100FB00000000074686520626F74746F6D206F6646
:100FC00020746865202020009501000000706C618D
:100FD00074666F726D20616E6420746967687465F1
:100FE0006E009507000000666F7572206F722066B4
:100FF000697665207475726E732E0095000000008E
:1010000049276D20676F696E6720746F206D6F765A
:101010006520202000950100000074686520657837
:1010200074727564657220746F20202020200095F2
:1010300001000000766172696F757320706F7369CB
:1010400074696F6E73202020009507000000666FA2
:10105000722061646A7573746D656E742E009500FC
:10106000000000496E206561636820706F736974C9
:10107000696F6E2C2020200095010000007765200C
:1010800077696C6C206E65656420746F2020202069
:101090002000950100000061646A7573742032209D
:1010A0006B6E6F6273206174202020009507000032
:1010B000007468652073616D652074696D652E002C
:1010C00095000000004E6F7A7A6C6573206172653E
:1010D0002061742074686520200095010000007272
:1010E0006967687420686569676874207768656EE9
:1010F000202020009501000000796F752063616E4B
:10110000206A75737420736C6964652061009507AB
:101110000000007368656574206F662070617065FB
:10112000720095000000006265747765656E20743A
:101130006865206E6F7A7A6C65202000950100004A
:1011400000616E642074686520706C6174666F72F3
:101150006D2E202020009501000000477261622062
:1011600061207368656574206F6620202020200050
:101170009507000000706170657220746F206173C4
:10118000736973742075732E009502000000506C13
:1011900065617365207761697400840369010000EB
:1011A000140083048800000014008C00000000007C
:1011B00000000030F8FFFF00000000000000008E7B
:1011C000000000000000000000000000000000001F
:1011D0000000000057290400188304DC05000014F7
:1011E000008CE5370000941B0000000000000000A8
:1011F0000000000000009502000000506C65617363
:10120000652077616974008EE6370000941B00004A
:10121000D007000000000000000000000D450300A2
:10122000188E00000000CAE4FFFFD0070000000095
:101230000000000000002A0D3B00188E0000000096
:10124000C9E4FFFF000000000000000000000000F3
:101250000D45030018950000000041646A75737421
:10126000207468652066726F6E742074776F0095C5
:10127000010000006B6E6F627320756E74696C20E4
:1012800070617065722020200095010000006A7571
:10129000737420736C696465732062657477656527
:1012A0006E200095070000006E6F7A7A6C652061F1
:1012B0006E6420706C6174666F726D009502000040
:1012C00000506C656173652077616974008E000061
:1012D0000000CAE4FFFFD00700000000000000008B
:1012E00000000D450300188E000000007A1A00006F
:1012F000D00700000000000000000000518128001D
:10130000188E000000007A1A0000000000000000A3
:101310000000000000000D450300189500000000CB
:1013200041646A75737420746865206261636B2020
:1013300074776F200095010000006B6E6F62732060
:10134000756E74696C207061706572202020009544
:10135000010000006A75737420736C696465732002
:101360006265747765656E200095070000006E6FFA
:101370007A7A6C6520616E6420706C6174666F723D
:101380006D009502000000506C6561736520776107
:101390006974008E000000007A1A0000D007000077
:1013A00000000000000000000D450300188EC62458
:1013B000000000000000D007000000000000000056
:1013C0000000A82F2200188EC62400000000000094
:1013D0000000000000000000000000000D450300B8
:1013E00018950000000041646A7573742074686584
:1013F0002072696768742074776F0095010000009F
:101400006B6E6F627320756E74696C2070617065AD
:10141000722020200095010000006A75737420730B
:101420006C69646573206265747765656E200095EC
:10143000070000006E6F7A7A6C6520616E64207020
:101440006C6174666F726D009502000000506C65EF
:101450006173652077616974008EC6240000000006
:101460000000D007000000000000000000000D4553
:101470000300188E3ADBFFFF00000000D0070000D9
:1014800000000000000000008B7C3700188E3ADB63
:10149000FFFF00000000000000000000000000004E
:1014A00000000D45030018950000000041646A75B6
:1014B000737420746865206C6566742074776F207F
:1014C0000095010000006B6E6F627320756E746989
:1014D0006C20706170657220202000950100000072
:1014E0006A75737420736C696465732062657477C0
:1014F00065656E200095070000006E6F7A7A6C6556
:1015000020616E6420706C6174666F726D0095026C
:10151000000000506C656173652077616974008E0E
:101520003ADBFFFF00000000D007000000000000D1
:10153000000000000D450300188E000000000000B0
:101540000000D0070000000000000000000045BEC1
:101550001B00188E000000000000000000000000CA
:1015600000000000000000000D4503001895000079
:101570000000436865636B2074686174207061705B
:101580006572202020200095010000006A757374A8
:1015900020736C69646573206265747765656E207D
:1015A0000095070000006E6F7A7A6C6520616E64AA
:1015B00020706C6174666F726D00891F9502000067
:1015C00000506C6561736520776169742E2E2E0062
:1015D00084036901000014008304880000001400E3
:1015E0008C000000000000000030F8FFFF00000049
:1015F00000000000008E000000000000000000005D
:1016000000000000000000000000572904001883BB
:1016100004DC0500001400901F891F9500000000E5
:1016200046696E64207468652034206B6E6F627347
:10163000206F6E2000950100000074686520626FC5
:1016400074746F6D206F662074686520202000958B
:1016500001000000706C6174666F726D20616E64D1
:10166000207469676874656E009507000000666FF6
:101670007572206F722066697665207475726E735C
:101680002E00950000000049276D20676F696E6786
:1016900020746F206D6F766520202000950100007A
:1016A0000074686520657874727564657220746F63
:1016B0002020202020009501000000766172696FD3
:1016C000757320706F736974696F6E7320202000CA
:1016D0009507000000666F722061646A7573746D0F
:1016E000656E742E009500000000496E20656163F0
:1016F0006820706F736974696F6E2C2020200095CC
:101700000100000077652077696C6C206E65656468
:1017100020746F20202020200095010000006164CB
:101720006A7573742032206B6E6F6273206174204F
:1017300020200095070000007468652073616D65C6
:101740002074696D652E0095000000004E6F7A7A56
:101750006C65732061726520617420746865202057
:101760000095010000007269676874206865696708
:101770006874207768656E202020009501000000C5
:10178000796F752063616E206A75737420736C695C
:10179000646520610095070000007368656574202A
:1017A0006F662070617065720095000000006265D0
:1017B000747765656E20746865206E6F7A7A6C65E3
:1017C0002020009501000000616E6420746865208F
:1017D000706C6174666F726D2E2020200095010080
:1017E0000000477261622061207368656574206F34
:1017F00066202020202000950700000070617065A1
:101800007220746F206173736973742075732E0076
:101810009502000000506C65617365207761697402
:101820000084036901000014008304880000001490
:10183000008C000000000000000030F8FFFF0000F6
:101840000000000000008E0000000000000000000A
:1018500000000000000000000000005729040018EC
:101860008304DC05000014008CE5370000941B00A5
:1018700000000000000000000000000000950200D1
:101880000000506C656173652077616974008EE5B6
:10189000370000941B0000D007000000000000008B
:1018A0000000000D450300188E12060000CAE4FF78
:1018B000FFD00700000000000000000000DADF3762
:1018C00000188E11060000CAE4FFFF0000000000AF
:1018D000000000000000000D450300189500000006
:1018E0000041646A757374207468652066726F6E57
:1018F000742074776F0095010000006B6E6F627347
:1019000020756E74696C20706170657220202000F3
:1019100095010000006A75737420736C69646573C7
:10192000206265747765656E200095070000006E83
:101930006F7A7A6C6520616E6420706C6174666F7A
:10194000726D009502000000506C65617365207730
:10195000616974008E11060000C9E4FFFFD0070022
:101960000000000000000000000D450300188E116B
:101970000600007A1A0000D00700000000000000F6
:1019800000000051812800188E120600007A1A000B
:10199000000000000000000000000000000D4503F2
:1019A0000018950000000041646A75737420746823
:1019B00065206261636B2074776F200095010000E1
:1019C000006B6E6F627320756E74696C207061704D
:1019D00065722020200095010000006A7573742054
:1019E000736C69646573206265747765656E200049
:1019F00095070000006E6F7A7A6C6520616E642036
:101A0000706C6174666F726D009502000000506C1E
:101A1000656173652077616974008E110600007B33
:101A20001A0000D007000000000000000000000DB8
:101A3000450300188E2A27000000000000D0070090
:101A4000000000000000000000CFF91F00188E2ADF
:101A5000270000000000000000000000000000005F
:101A60000000000D45030018950000000041646A65
:101A70007573742074686520726967687420747760
:101A80006F0095010000006B6E6F627320756E74BD
:101A9000696C207061706572202020009501000043
:101AA000006A75737420736C696465732062657471
:101AB0007765656E200095070000006E6F7A7A6C7E
:101AC0006520616E6420706C6174666F726D009544
:101AD00002000000506C65617365207761697400D5
:101AE0008E2A27000000000000D007000000000040
:101AF00000000000000D450300188EF8E4FFFF0011
:101B0000000000D0070000000000000000000017E7
:101B1000F03100188EF9E4FFFF0000000000000023
:101B20000000000000000000000D450300189500B3
:101B300000000041646A75737420746865206C65E8
:101B400066742074776F200095010000006B6E6F43
:101B5000627320756E74696C2070617065722020EC
:101B6000200095010000006A75737420736C69642D
:101B70006573206265747765656E200095070000C7
:101B8000006E6F7A7A6C6520616E6420706C61748F
:101B9000666F726D009502000000506C65617365A0
:101BA0002077616974008EF9E4FFFF00000000D027
:101BB00007000000000000000000000D45030018B1
:101BC0008E1106000000000000D007000000000099
:101BD00000000000000BF81800188E11060000002D
:101BE0000000000000000000000000000000000DE8
:101BF000450300189500000000436865636B20747E
:101C00006861742070617065722020202000950149
:101C10000000006A75737420736C696465732062D8
:101C200065747765656E200095070000006E6F7A19
:101C30007A6C6520616E6420706C6174666F726D81
:101C400000891F99000000005265704720427569A5
:101C50006C64009600FF8600860088001F026E00FC
:101C600088011F026E00860088000302DC008601E6
:101C700088010302DC00840369010000140083046E
:101C80008800000014008C000000000000000030FC
:101C9000F8FFFF00000000000000008E00000000C0
:101CA0000000000000000000000000000000000034
:101CB00057290400188304DC0500001400901F8BD2
:101CC0005ED7FFFFCAE4FFFF60EA000000000000EB
:101CD00000000000800000009100149101149102A6
:101CE000149103149104148600860087006400FF99
:101CF000FF8D006400FFFF8601860187016400FFFD
:101D0000FF8D006400FFFF91007F91017F91022809
:101D100091037F91047F86008E5DD7FFFFC9E4FFAA
:101D2000FF500000000000000000000000033875B4
:101D30000018898888000A010388000401FF8E00CA
:101D40000000000000000000000000C0FEFFFF00D7
:101D500000000060E316001F8E42E6FFFFB7E9FFB8
:101D6000FF680100005BFFFFFF000000002ED60BA4
:101D700000188E43E6FFFFB8E9FFFF68010000E3AB
:101D8000FFFFFF000000001C5800001889888E42E9
:101D9000E6FFFFB7E9FFFFF0000000ECFFFFFF00E8
:101DA00000000000320000188E42E6FFFFB7E9FF96
:101DB000FFF0000000E3FFFFFF00000000F22B0037
:101DC00000188E8DD7FFFFB7E9FFFFF00000009CE1
:101DD000FEFFFF00000000862F3000188E42E6FF55
:101DE000FF6EEDFFFFF0000000300000000000007B
:101DF0000012720B00188E42E6FFFF6EEDFFFFF03F
:101E0000000000E4FFFFFF00000000F12B000018BD
:101E10008E3ADBFFFF6EEDFFFFF00000009BFEFF40
:101E2000FF00000000A5232400188E42E6FFFF25D6
:101E3000F1FFFFF000000030000000000000003162
:101E4000C80800188E43E6FFFF24F1FFFFF00000F2
:101E500000E4FFFFFF00000000F12B0000188E3AA5
:101E6000DBFFFF25F1FFFFF00000009BFEFFFF00FE
:101E7000000000A5232400188E42E6FFFFDCF4FFDB
:101E8000FFF0000000300000000000000031C80832
:101E900000188E42E6FFFFDBF4FFFFF0000000E4D5
:101EA000FFFFFF00000000F22B0000188E3ADBFF5E
:101EB000FFDCF4FFFFF00000009BFEFFFF000000CE
:101EC00000A5232400188E42E6FFFF92F8FFFFF0E2
:101ED000000000310000000000000031C8080018B8
:101EE0008E42E6FFFF93F8FFFFF0000000E3FFFFE4
:101EF000FF00000000F22B0000188E3BDBFFFF927A
:101F0000F8FFFFF00000009BFEFFFF00000000A5AF
:101F1000232400188E42E6FFFF49FCFFFFF000007B
:101F200000310000000000000031C80800188E4297
:101F3000E6FFFF49FCFFFFF0000000E3FFFFFF00AA
:101F4000000000F22B0000188E3ADBFFFF49FCFF77
:101F5000FFF00000009BFEFFFF00000000A523240F
:101F600000188E42E6FFFF00000000F00000003184
:101F70000000000000000031C80800188E42E6FF93
:101F8000FF00000000F0000000E3FFFFFF00000082
:101F900000F22B0000188E3ADBFFFF00000000F07B
:101FA0000000009BFEFFFF00000000A52324001896
:101FB0008E43E6FFFFB7030000F000000031000091
:101FC000000000000031C80800188E42E6FFFFB78D
:101FD000030000F0000000E3FFFFFF00000000F23C
:101FE0002B0000188E3ADBFFFFB7030000F0000063
:101FF000009CFEFFFF00000000A5232400188E4275
:10200000E6FFFF6E070000F0000000300000000057
:1020100000000031C80800188E42E6FFFF6D07007F
:1020200000F0000000E3FFFFFF00000000F22B00C3
:1020300000188E3ADBFFFF6E070000F00000009CE6
:10204000FEFFFF00000000A5232400188E43E6FFDA
:10205000FF240B0000F00000003000000000000032
:102060000031C80800188E42E6FFFF250B0000F083
:10207000000000E3FFFFFF00000000F12B0000184C
:102080008E3ADBFFFF240B0000F00000009CFEFFF7
:10209000FF00000000A5232400188E42E6FFFFDBAE
:1020A0000E0000F0000000300000000000000031D1
:1020B000C80800188E42E6FFFFDC0E0000F00000AA
:1020C00000E3FFFFFF00000000F12B0000188E3A34
:1020D000DBFFFFDB0E0000F00000009CFEFFFF00B6
:1020E000000000A5232400188E43E6FFFF92120093
:1020F00000F0000000300000000000000031C808BF
:1021000000188E42E6FFFF92120000F0000000E38C
:10211000FFFFFF00000000F12B0000188E3ADBFFEC
:10212000FF92120000F00000009CFEFFFF00000084
:1021300000A5232400188E42E6FFFF49160000F098
:10214000000000300000000000000031C808001846
:102150008E42E6FFFF49160000F0000000E3FFFF9B
:10216000FF00000000F12B0000188E3ADBFFFF4952
:10217000160000F00000009CFEFFFF00000000A51C
:10218000232400188EC0F4FFFFA5F8FFFF680100AC
:1021900000300000000000000018821D00188EBFF3
:1021A000F4FFFFA5F8FFFFF0000000D0FFFFFF00E5
:1021B000000000AE250000188EBFF4FFFFA5F8FF59
:1021C000FFF0000000E3FFFFFF00000000F12B0024
:1021D00000188EC0F4FFFF5B070000F00000009CB9
:1021E000FEFFFF00000000862F3000188E76F8FFFB
:1021F000FFA5F8FFFFF00000003000000000000025
:102200000012720B00188E76F8FFFFA5F8FFFFF0A2
:10221000000000E3FFFFFF00000000F12B000018AA
:102220008E76F8FFFFAE030000F00000009CFEFF7A
:10223000FF00000000A5232400188E2DFCFFFFA541
:10224000F8FFFFF000000030000000000000003147
:10225000C80800188E2DFCFFFFA5F8FFFFF0000056
:1022600000E3FFFFFF00000000F12B0000188E2D9F
:10227000FCFFFFAE030000F00000009CFEFFFF002B
:10228000000000A5232400188EE4FFFFFFA5F8FF3F
:10229000FFF0000000300000000000000031C8081E
:1022A00000188EE3FFFFFFA5F8FFFFF0000000E33A
:1022B000FFFFFF00000000F12B0000188EE4FFFF7D
:1022C000FFAD030000F00000009CFEFFFF000000D7
:1022D00000A5232400188E9B030000A6F8FFFFF042
:1022E000000000300000000000000031C8080018A5
:1022F0008E9A030000A5F8FFFFF0000000E3FFFF47
:10230000FF00000000F12B0000188E9B030000ADC1
:10231000030000F00000009CFEFFFF00000000A58D
:10232000232400188E51070000A5F8FFFFF00000DD
:1023300000300000000000000031C80800188E5274
:10234000070000A6F8FFFFF0000000E3FFFFFF001A
:10235000000000F12B0000188E51070000AD0300B3
:1023600000F00000009CFEFFFF00000000A52324F9
:1023700000188E080B0000A5F8FFFFF000000030E9
:102380000000000000000031C80800188E080B0093
:1023900000A5F8FFFFF0000000E3FFFFFF000000D2
:1023A00000F12B0000188E090B0000AE030000F0B6
:1023B0000000009CFEFFFF00000000A52324001881
:1023C0008EBF0E0000A5F8FFFFF0000000300000F7
:1023D000000000000031C80800188EBF0E0000A5E4
:1023E000F8FFFFF0000000E3FFFFFF00000000F136
:1023F0002B0000188EBF0E0000AE030000F000009E
:10240000009CFEFFFF00000000A5232400188E752D
:10241000120000A5F8FFFFF00000003000000000EF
:1024200000000031C80800188E76120000A5F8FFE1
:10243000FFF0000000E3FFFFFF00000000F12B00B1
:1024400000188E76120000AD030000F00000009C22
:10245000FEFFFF00000000A5232400188E2D1600AB
:1024600000A6F8FFFFF000000030000000000000B0
:102470000031C80800188E2C160000A5F8FFFFF0E8
:10248000000000E3FFFFFF00000000F12B00001838
:102490008E2D160000AD030000F00000009CFEFF32
:1024A000FF00000000A5232400188EE3190000A5FA
:1024B000F8FFFFF0000000300000000000000031D5
:1024C000C80800188EE4190000A6F8FFFFF000000D
:1024D00000E3FFFFFF00000000F12B0000188EE377
:1024E000190000AD030000F00000009CFEFFFF009B
:1024F000000000A5232400188E9A1D0000A5F8FFF7
:10250000FFF0000000300000000000000031C808AB
:1025100000188E9B1D0000A6F8FFFFF0000000E3EE
:10252000FFFFFF00000000F12B0000188E9A1D0035
:1025300000AD030000F00000009CFEFFFF00000063
:1025400000A5232400188E51210000A5F8FFFFF0FC
:10255000000000300000000000000031C808001832
:102560008E51210000A5F8FFFFF0000000E3FFFFFF
:10257000FF00000000F12B0000188E51210000AE7A
:10258000030000F00000009CFEFFFF00000000A51B
:10259000232400188E51210000AD030000F000003C
:1025A000003000000000000000D9920000188908E7
:1025B000860189188C51210000AD030000F0000055
:1025C0000099220000000000008E42E6FFFFF0E9C3
:1025D000FFFF680100000000000000000000A89A52
:1025E0003000188E43E6FFFFEFE9FFFF68010000AF
:1025F00000000000E3FFFFFF1C5800001889908EC8
:1026000042E6FFFFF0E9FFFFF000000000000000DD
:10261000EDFFFFFF00320000188E42E6FFFFF0E9F9
:10262000FFFFF000000000000000E3FFFFFFF22BBF
:102630000000188E4AF1FFFFEFE9FFFFF0000000F5
:10264000000000009CFEFFFFA5232400188E43E637
:10265000FFFF9DEDFFFFF0000000000000003000D4
:102660000000EFC50800188E42E6FFFF9DEDFFFF5A
:10267000F000000000000000E3FFFFFFF12B00006E
:10268000188E4AF1FFFF9DEDFFFFF00000000000F3
:1026900000009CFEFFFFA5232400188E42E6FFFFEA
:1026A0004BF1FFFFF00000000000000030000000D0
:1026B000EFC50800188E43E6FFFF4AF1FFFFF00068
:1026C000000000000000E3FFFFFFF12B0000188E68
:1026D0004AF1FFFF4AF1FFFFF00000000000000098
:1026E0009CFEFFFFA5232400188E42E6FFFFF8F4AE
:1026F000FFFFF00000000000000030000000EFC508
:102700000800188E43E6FFFFF8F4FFFFF00000001A
:1027100000000000E3FFFFFFF22B0000188E4AF1DB
:10272000FFFFF8F4FFFFF0000000000000009CFE37
:10273000FFFFA5232400188E42E6FFFFA5F8FFFF48
:10274000F00000000000000030000000EFC50800AD
:10275000188E42E6FFFFA5F8FFFFF0000000000022
:102760000000E3FFFFFFF22B0000188E4BF1FFFF8C
:10277000A6F8FFFFF0000000000000009CFEFFFF35
:10278000A5232400188E42E6FFFF52FCFFFFF00055
:1027900000000000000030000000EFC50800188EA7
:1027A00042E6FFFF53FCFFFFF000000000000000C6
:1027B000E3FFFFFFF22B0000188E4BF1FFFF52FCEE
:1027C000FFFFF0000000000000009CFEFFFFA523BB
:1027D0002400188E42E6FFFF00000000F000000019
:1027E0000000000030000000EFC50800188E42E62F
:1027F000FFFF00000000F000000000000000E3FF09
:10280000FFFFF22B0000188E4BF1FFFF00000000CD
:10281000F0000000000000009CFEFFFFA523240044
:10282000188E42E6FFFFAE030000F000000000003B
:10283000000030000000EFC50800188E42E6FFFFE0
:10284000AD030000F000000000000000E3FFFFFF08
:10285000F22B0000188E4AF1FFFFAE030000F000DB
:102860000000000000009CFEFFFFA5232400188E3E
:1028700043E6FFFF5A070000F000000000000000E0
:1028800030000000EFC50800188E42E6FFFF5B072E
:102890000000F000000000000000E3FFFFFFF22B4B
:1028A0000000188E4AF1FFFF5B070000F0000000F7
:1028B000000000009CFEFFFFA5232400188E42E6C6
:1028C000FFFF080B0000F0000000000000003000D7
:1028D0000000EFC50800188E43E6FFFF080B00005C
:1028E000F000000000000000E3FFFFFFF12B0000FC
:1028F000188E4AF1FFFF080B0000F00000000000F6
:1029000000009CFEFFFFA5232400188E42E6FFFF77
:10291000B60E0000F00000000000000030000000D3
:10292000EFC50800188E43E6FFFFB60E0000F0006A
:10293000000000000000E3FFFFFFF12B0000188EF5
:102940004AF1FFFFB50E0000F0000000000000009B
:102950009CFEFFFFA5232400188E42E6FFFF6312B2
:102960000000F00000000000000030000000EFC593
:102970000800188E42E6FFFF63120000F00000001E
:1029800000000000E3FFFFFFF12B0000188E4BF169
:10299000FFFF63120000F0000000000000009CFE3A
:1029A000FFFFA5232400188E42E6FFFF111600004A
:1029B000F00000000000000030000000EFC508003B
:1029C000188E42E6FFFF10160000F0000000000025
:1029D0000000E3FFFFFFF12B0000188E4BF1FFFF1B
:1029E00010160000F0000000000000009CFEFFFF39
:1029F000A5232400188EF7F4FFFF9DEDFFFF68016B
:102A000000000000000030000000BEA41E00188E70
:102A1000F8F4FFFF9DEDFFFFF00000000000000054
:102A2000D0FFFFFFAE250000188EF8F4FFFF9DEDEC
:102A3000FFFFF000000000000000E3FFFFFFF12BAC
:102A40000000188EF8F4FFFFA6F8FFFFF00000006A
:102A5000000000009CFEFFFFA5232400188EA5F8AF
:102A6000FFFF9DEDFFFFF0000000000000003000C0
:102A70000000EFC50800188EA5F8FFFF9DEDFFFFD1
:102A8000F000000000000000E3FFFFFFF12B00005A
:102A9000188EA6F8FFFFA5F8FFFFF0000000000069
:102AA00000009CFEFFFFA5232400188E52FCFFFFB0
:102AB0009DEDFFFFF000000000000000300000006E
:102AC000EFC50800188E53FCFFFF9DEDFFFFF000DF
:102AD000000000000000E3FFFFFFF12B0000188E54
:102AE00052FCFFFFA5F8FFFFF0000000000000000F
:102AF0009CFEFFFFA5232400188E000000009DED22
:102B0000FFFFF00000000000000030000000EFC5F3
:102B10000800188E000000009DEDFFFFF00000008F
:102B200000000000E3FFFFFFF12B0000188E000003
:102B30000000A5F8FFFFF0000000000000009CFE70
:102B4000FFFFA5232400188EAE0300009DEDFFFFBC
:102B5000F00000000000000030000000EFC5080099
:102B6000188EAD0300009DEDFFFFF0000000000097
:102B70000000E3FFFFFFF12B0000188EAE03000002
:102B8000A6F8FFFFF0000000000000009CFEFFFF21
:102B9000A5232400188E5A0700009DEDFFFFF000CA
:102BA00000000000000030000000EFC50800188E93
:102BB0005B0700009DEDFFFFF0000000000000003B
:102BC000E4FFFFFFF12B0000188E5B070000A5F863
:102BD000FFFFF0000000000000009BFEFFFFA523A8
:102BE0002400188E080B00009DEDFFFFF000000090
:102BF0000000000030000000EFC50800188E080B30
:102C000000009DEDFFFFF000000000000000E4FF69
:102C1000FFFFF12B0000188E080B0000A5F8FFFF46
:102C2000F0000000000000009BFEFFFFA523240031
:102C3000188EB60E00009DEDFFFFF00000000000B2
:102C4000000030000000EFC50800188EB60E00002E
:102C50009DEDFFFFF000000000000000E4FFFFFF1B
:102C6000F12B0000188EB50E0000A5F8FFFFF00054
:102C70000000000000009BFEFFFFA5232400188E2B
:102C8000631200009DEDFFFFF00000000000000057
:102C900030000000EFC50800188E631200009DEDA3
:102CA000FFFFF000000000000000E4FFFFFFF12B39
:102CB0000000188E63120000A5F8FFFFF00000006E
:102CC000000000009BFEFFFFA5232400188E1116B4
:102CD00000009DEDFFFFF00000000000000031004B
:102CE0000000EFC50800188E101600009EEDFFFFD3
:102CF000F000000000000000E3FFFFFFF12B0000E8
:102D0000188E10160000A5F8FFFFF000000000006C
:102D100000009BFEFFFFA5232400188EBE190000B3
:102D20009DEDFFFFF00000000000000031000000FA
:102D3000EFC50800188EBE1900009DEDFFFFF000E2
:102D4000000000000000E3FFFFFFF12B0000188EE1
:102D5000BE190000A5F8FFFFF00000000000000011
:102D60009BFEFFFFA5232400188E6B1D00009DED28
:102D7000FFFFF00000000000000031000000EFC580
:102D80000800188E6B1D00009DEDFFFFF000000095
:102D900000000000E3FFFFFFF12B0000188E6B1D09
:102DA0000000A5F8FFFFF0000000000000009CFEFE
:102DB000FFFFA5232400188E192100009DEDFFFFC1
:102DC000F00000000000000030000000EFC5080027
:102DD000188E182100009DEDFFFFF000000000009C
:102DE0000000E3FFFFFFF12B0000188E1921000007
:102DF000A5F8FFFFF0000000000000009CFEFFFFB0
:102E0000A52324001889108E18210000A6F8FFFFC2
:102E100030F2000000000000000000007CD17800CB
:102E20001888010A010288010401FF891F860088B1
:102E3000000302000086018801030200008600886A
:102E4000001F02000088011F020000891F5F002888
:102E5000060A1200002020546865205265706C69D3
:102E60006361746F722020202000202020202D2DEF
:102E70002D2D2D2D2D2D2D2D2020202020200049E1
:102E80006E7465726E616C2052656C65617365204D
:102E9000202020004669726D776172652056657248
:102EA00073696F6E20352E2000436F6F6C210053C5
:102EB0007461727420507265686561742100526992
:102EC00067687420546F6F6C004E4120004F4E2095
:102ED000004F4646004578747275646572004C6513
:102EE000667420546F6F6C00506C6174666F726D05
:102EF0000057656C636F6D65212020202020202005
:102F0000202020202049276D20746865205265709C
:102F10006C696361746F722E2050726573732074D4
:102F2000686520726564204D20746F202067657489
:102F30002073746172746564212020202020202079
:102F400020004120626C696E6B696E6720274D27F7
:102F5000206D65616E7349276D2077616974696EB4
:102F60006720616E642077696C6C636F6E74696E44
:102F70007565207768656E20796F752020207072E6
:102F80006573732074686520627574746F6E2E2E7D
:102F90002E20004120736F6C696420274D27206D1F
:102FA00065616E7320202049276D20776F726B69F1
:102FB0006E6720616E642077696C6C7570646174F3
:102FC00065206D79207374617475732020202077DB
:102FD00068656E2049276D2066696E69736865644F
:102FE0002E2E2E004F7572206E65787420737465D6
:102FF00070732077696C6C20676574206D65207331
:10300000657420757021202020202020466972736D
:10301000742C207765276C6C20726573746F7265F1
:103020006D79206275696C6420706C6174666F7272
:103030006D2E2E2E00736F2069742773206E6963C6
:103040006520616E64202020206C6576656C2E20E2
:10305000497427732070726F6261626C79612062BB
:103060006974206F66662066726F6D2020202020B4
:10307000207368697070696E672E2E2E20202020C4
:10308000202020202000416161682C207468617438
:10309000206665656C73202020206D756368206252
:1030A00065747465722E20202020202020204C651D
:1030B00074277320676F206F6E20616E64206C6FC1
:1030C0006164736F6D6520706C6173746963212036
:1030D000202020202020005765276C6C20747279F6
:1030E00020616761696E212020202020202020207F
:1030F00020202020202020202020202020202020D0
:1031000020202020202020202020202020202020BF
:1031100020202020202020202020202020202020AF
:1031200020202020202020005765276C6C206B6514
:10313000657020676F696E6720202020616E6420B3
:103140006C6F616420736F6D65202020202020202B
:10315000706C61737469632120466F722068656CBE
:103160007020676F746F206D616B6572626F742E73
:10317000636F6D2F68656C70005765276C6C2067F6
:103180006F20746F20746865206D61696E6D656E67
:10319000752E20496620796F75206E656564202044
:1031A0002068656C7020676F20746F3A20202020A3
:1031B00020202020206D616B6572626F742E636F1A
:1031C0006D2F68656C7020202000417765736F6DEE
:1031D000652120202020202020202020202057652D
:1031E000276C6C20676F20746F20746865205344CF
:1031F000202063617264206D656E7520616E6420AD
:10320000796F7520202063616E2073656C6563742F
:103210002061206D6F64656C21200049276D206757
:103220006F696E6720746F206D616B65202020616F
:1032300020736572696573206F66206C696E6573B3
:1032400020736F77652063616E2066696E64206D00
:10325000792020202020206E6F7A7A6C6520616CA6
:1032600069676E6D656E742E202020004C6F6F6B49
:1032700020666F7220746865206265737420202058
:103280006D617463686564206C696E6520696E2089
:103290006561636861786973207365742E204C6979
:1032A0006E657320617265206E756D62657265640E
:1032B00020312D313320616E642E2E2E006C696E0C
:1032C00065206F6E652069732065787472612020B7
:1032D000206C6F6E672E20546865205920617869D4
:1032E00073207365746973206C656674206F6E203B
:1032F00074686520706C617465616E64205820612B
:103300007869732069732072696768742E00477248
:103310006561742120204927766520736176656494
:10332000202074686573652073657474696E6773B3
:1033300020616E64202049276C6C207573652074B1
:1033400068656D20746F202020206D616B65206E94
:10335000696365206D6F64656C73212020200053C4
:10336000656C6563742062657374206C696E657347
:103370002E00582041786973204C696E65002D2D10
:103380003E0020202000592041786973204C696E4E
:103390006500446F6E6521004D792074656D706520
:1033A0007261747572652077617320206368616E45
:1033B0006765642065787465726E616C6C792E2027
:1033C000526573656C6563742066696C616D656ECA
:1033D000742020206D656E7520746F2074727920C2
:1033E000616761696E2E004D79206578747275642D
:1033F00065727320617265202020206E6F742068D2
:10340000656174696E672075702E2020202020432E
:103410006865636B206D79202020202020202020EB
:10342000202020636F6E6E656374696F6E73212058
:103430002020202020202000507265737320646FAC
:10344000776E206F6E207468652020206772657922
:103450002072696E677320617420746F70206F66CC
:103460007468652065787472756465727320616E26
:103470006420202070756C6C2074686520626C611B
:10348000636B2E2E2E2020200050726573732064F3
:103490006F776E206F6E20746865202020677265DC
:1034A000792072696E6720617420746F70206F6676
:1034B0002074686520657874727564657220616E29
:1034C000642020202070756C6C2074686520626C0C
:1034D00061636B2E2E2E2020200049276D20686509
:1034E0006174696E67207570206D79202020657881
:1034F00074727564657221202020202020202020F5
:103500002020506C6561736520776169742E2020DE
:1035100020202020202020202020202020202020AB
:10352000202020202020202020200067756964654D
:10353000207475626573206F75742E204E6F7766E8
:103540006565642066696C616D656E742066726F76
:103550006D2020746865206261636B207468726FEF
:1035600075676820746865747562657320756E741C
:10357000696C2069742E2E2E2020200067756964E6
:10358000652074756265206F75742E20204E6F77EC
:10359000666565642066696C616D656E742066722F
:1035A0006F6D2020746865206261636B207468729F
:1035B0006F756768207468657475626520756E74D0
:1035C000696C2069742E2E2E2020202000706F70D0
:1035D00073206F757420696E2066726F6E742E2072
:1035E0002049276D2068656174696E6720757020B9
:1035F0006D79202020657874727564657220736F10
:103600002077652063616E20206C6F616420746890
:10361000652066696C616D656E742E2E2E0054688F
:103620006973206D696768742074616B652061201F
:103630002020666577206D696E757465732E202075
:10364000202020202020416E642077617463682050
:103650006F75742C2074686520206E6F7A7A6C65A3
:103660002077696C6C2067657420484F54210048AE
:10367000656174696E672050726F67726573733A23
:10368000202020202020202020202020202020203A
:10369000202020202020202020202020202020202A
:1036A000202020202020202020202020202020201A
:1036B000202020202020202020202020202020002A
:1036C0004F4B2049276D20726561647921202020AD
:1036D000202020204669727374207765276C6C2047
:1036E0006C6F6164207468657269676874206578BE
:1036F0007472756465722E202020202050757368C6
:103700002066696C616D656E7420696E2E2E2E20A8
:1037100000477265617421204E6F77207765276CB2
:103720006C202020206C6F616420746865206C65BB
:1037300066742020202020202065787472756465CE
:10374000722E205075736820202020202066696C1E
:10375000616D656E74207468726F7567682E2E2EA9
:1037600020004F4B2049276D20726561647921202C
:103770002020202020205075736820746865206602
:10378000696C616D656E74202020646F776E2074A3
:1037900068726F7567682E2E2E2020202020202032
:1037A0002020202020202020202020202020202019
:1037B0002020004F4B2049276D20726561647921DC
:1037C00020202020202020506F7020746865206702
:1037D00075696465207475626520206F6666206176
:1037E0006E642070757368207468652020202066E0
:1037F000696C616D656E74207468726F7567682E90
:103800002E2E20004F4B2049276D20726561647970
:103810002120202020202020506F702074686520F7
:103820006775696465207475626520206F6666201F
:10383000616E642070756C6C202020202020202078
:1038400066696C616D656E742067656E746C792E47
:103850002E2E20200074686520657874727564656A
:103860007220626C6F636B2020756E74696C2079B6
:103870006F75206665656C2074686520206D6F74B7
:103880006F722074756767696E67207468652020A1
:1038900020706C617374696320696E2E2E2E202057
:1038A0002020202020005768656E2066696C616DBD
:1038B000656E7420697320202020657874727564A9
:1038C000696E67206F7574206F66207468656E6F0F
:1038D0007A7A6C652C20507265737320274D2720EF
:1038E0002020746F2073746F702065787472756413
:1038F000696E672E2020005768656E2066696C61CE
:103900006D656E742069732020202065787472754F
:1039100064696E67206F7574206F66207468656EC9
:103920006F7A7A6C652C20507265737320274D274F
:10393000202020746F2065786974202020202020AA
:1039400020202020202020005768656E206D7920DF
:1039500066696C616D656E742069732072656C6553
:10396000617365642C20202020202020202020202E
:10397000507265737320274D2720746F2065786916
:10398000742E2020202020202020202020202020D5
:1039900020202020202020200047726561742120F3
:1039A0002049276C6C2073746F7020202072756E14
:1039B0006E696E67206D79206578747275646572C2
:1039C0002E5072657373204D20746F20636F6E7478
:1039D000696E75652E2020202020202020202020A8
:1039E000202020202020202020004F4B212049276C
:1039F0006C6C206B656570206D79202020206D6FC8
:103A0000746F722072756E6E696E672E20596F75B5
:103A100020206D6179206E65656420746F2070755B
:103A20007368202020206861726465722E2E2E201B
:103A300020202020202020202020005765276C6C8B
:103A4000206B65657020676F696E672E2020204CA3
:103A50006574732074727920746865206C6566746F
:103A600020202065787472756465722E20507573FD
:103A70006820202020202066696C616D656E7420AE
:103A8000646F776E2E2E2E20202020005765276C25
:103A90006C206B65657020676F696E672E20202033
:103AA000496620796F7527726520686176696E674F
:103AB0002020202074726F75626C652C206368650D
:103AC000636B206F757420206D616B6572626F741B
:103AD0002E636F6D2F68656C70202020004D79205B
:103AE0006D6F746F722074696D6564206F757420DA
:103AF0002061667465722035206D696E757465731A
:103B00002E202020205072657373204D20746F206A
:103B1000657869742E20202020202020202020205D
:103B20002020202020202020202020202000486F3E
:103B300077276420697420676F3F2052656164793C
:103B4000202000746F206D616B6520736F6D65744C
:103B500068696E673F202000596573202020004E61
:103B60006F2020202000446F6573206D79206E6FD8
:103B70007A7A6C6500686569676874206368656354
:103B80006B206F75743F004D7920686569676874B4
:103B900020697320676F6F6421004C657427732060
:103BA00074727920616761696E2E004469642070C7
:103BB0006C61737469632065787472756465200044
:103BC00066726F6D20746865206E6F7A7A6C653FDF
:103BD00000556E6C6F616420726967687400556E81
:103BE0006C6F6164004C6F6164206C656674005595
:103BF0006E6C6F6164206C656674004C6F6164204C
:103C00007269676874004C6F616400202020202076
:103C10004A6F67206D6F64652020202020202000DF
:103C20002020202020202020582B20202020202051
:103C30002020202000202020202020284261636BAB
:103C400029202020592D3E20200020202020202027
:103C50002020582D2020202020202020202000203F
:103C600020202020202020592B2020202020202010
:103C70002020200020203C2D5820284261636B2901
:103C800020205A2D3E2020200020202020202020EF
:103C900020592D20202020202020202020002020FE
:103CA0002020202020205A2D2020202020202020CD
:103CB00020200020203C2D5920284261636B2920C0
:103CC0002020202020202000202020202020202014
:103CD0005A2B202020202020202020200047414D4A
:103CE00045204F564552210048656174696E673A18
:103CF0002020202020202020202020200048656136
:103D000074696E673A00202D2D25006572726F72FE
:103D100021002020202020202020202020202020C2
:103D20002020202020200045787472756465723A46
:103D30002020202D2D2D2F2D2D2D43005220457874
:103D40007472756465723A202D2D2D2F2D2D2D4303
:103D5000004C2045787472756465723A202D2D2DC3
:103D60002F2D2D2D4300506C6174666F726D3A20BB
:103D700020202D2D2D2F2D2D2D430020204E412094
:103D80002020200077616974696E6720002F202051
:103D90002043004320202020002050726568656188
:103DA000742053657474696E677320202000526913
:103DB00067687420546F6F6C202020202020202002
:103DC0002020004C65667420546F6F6C20202020EA
:103DD0002020202020202000506C6174666F726DBE
:103DE0002020202020202020002052657365742090
:103DF00053657474696E677320746F2020002044CB
:103E0000656661756C742076616C7565733F0055ED
:103E10006E506175736520202020202020202020F6
:103E20002020005061757365202020202020202054
:103E30002020202020200043616E63656C204275A5
:103E4000696C6420202020202020004368616E6778
:103E5000652046696C616D656E74202020200053DA
:103E60006C6565702028436F6C64205061757365C4
:103E7000292000526573756D65204275696C642058
:103E8000202020202020004C454420436F6C6F727E
:103E900020202020202020202020005245442020C7
:103EA00020004F52414E4745200050494E4B2020A4
:103EB00000475245454E2000424C554520200050B9
:103EC0005552504C450057484954452000435553DE
:103ED000544F4D004F46462020200046696C616DCE
:103EE000656E742046616E20202020202020200056
:103EF0004275696C64205374617469737469637387
:103F0000202020004261636B20746F204D6F6E692A
:103F1000746F7220202020004275696C642046690D
:103F20006E697368656421202020202020202020D5
:103F30002020202020202020202020202020202081
:103F40004275696C642054696D6520202020202012
:103F50006820206D004275696C642054696D653A73
:103F600020202020206820206D004C696E653A20BA
:103F7000202020202020202020202020202000453C
:103F80007374696D61746564204275696C64205452
:103F9000696D654C69666574696D6520546F7461FF
:103FA0006C3A2020202068004C61737420427569AF
:103FB0006C643A20202020206820206D0043616E30
:103FC00063656C2074686973206275696C643F0076
:103FD0005175697420746869732070726F636573BA
:103FE000733F004275696C642066726F6D205344A4
:103FF00020202020202000507265686561742020F8
:1040000020202020202020202020005574696C6969
:104010007469657320202020202020202020004962
:104020006E666F20616E642053657474696E677389
:104030002020004D6F6E69746F72204D6F64652093
:10404000202020202020004368616E67652046699B
:104050006C616D656E7420202020004C6576656C67
:10406000204275696C6420506C6174652020004AA0
:104070006F67204D6F6465202020202020202020A5
:10408000202000486F6D6520417865732020202036
:104090002020202020200052756E205374617274FD
:1040A0007570205363726970742000456E61626C94
:1040B0006520537465707065727320202020004461
:1040C000697361626C6520537465707065727320EA
:1040D00020200053746F7020426C696E6B696E67AC
:1040E00021202020202000426C696E6B204C45442A
:1040F000732020202020202020200043616C696252
:1041000072617465204E6F7A7A6C65732020006549
:10411000786974206D656E75202020202020202075
:10412000202000426F742053746174697374696352
:104130007320202020200047656E6572616C20533B
:10414000657474696E67732020200050726568651D
:1041500061742053657474696E6773202020005663
:10416000657273696F6E204E756D626572202020D6
:10417000202000526573746F726520446566617516
:104180006C747320202000536F756E6420202020F3
:1041900020202020202020202020004865617465F8
:1041A0006420506C61746500546F6F6C20436F75B0
:1041B0006E742020202020202020200053494E47CC
:1041C0004C45004455414C20200048656174204C0A
:1041D00045447320202020202020202020004865F6
:1041E0006C7020546578742020202020202020200E
:1041F0002000416363656C65726174652020202036
:104200002020202020004E6F2053442063617264E0
:1042100020666F756E64005344206361726420727F
:10422000656164206572726F7200492063616E2758
:10423000742072656164207468697320202053447F
:10424000206361726420666F726D6174212020208A
:104250002020547279207265666F726D6174746982
:104260006E6720202020746865206361726420746A
:104270006F2046415431362E2000492063616E275D
:1042800074207265616420534420092020206361FA
:1042900072647320776974682073746F72616765E4
:1042A00020206C6172676572207468616E203247ED
:1042B000422E2020202020202020202020202020CE
:1042C00020202020202020200020534420636172E1
:1042D000642072656164206572726F7200204927E4
:1042E0006D20616C7265616479206275696C6469C6
:1042F0006E67005761726E696E673A4275696C64E9
:104300002073706565647366617374657220746888
:10431000616E2035306D6D2F732020726571756967
:1043200072652078336720666F726D617420206635
:104330006F72206265737420726573756C74732E6E
:1043400020202000010049033600FF006B00D1004F
:10435000A000B800D500A6000A0199003F018E0018
:1043600074018400A9017C00DE01740013026C005A
:10437000480265007D025D00B2025600E7024E0071
:104380001C03460051033D0086033200BB0322009C
:10439000F0030300D0FEC0FF18FFD0FF63FFE0FF73
:1043A000B1FFF0FF0000000051001000A400200049
:1043B000F800300040014000A2015000F701600009
:1043C0004B0270009F028000F20290004503A000A3
:1043D0009703B000E803C0003A04D0008C04E0006A
:1043E000DF04F0003205000186051001DB05200125
:1043F0002F063001DA065001300760018607700190
:10440000DC078001680890012039C9FFE03CE7FF24
:10441000F83F000000000000080000002003190021
:104420004006320060094B00000A5000800C640016
:1044300000108000823BAA3B283FE24843491053CA
:10444000A4541C588A59596D617F7982AE8C2A8E8A
:10445000BF8EBA8FFB904893AC9F8DA045A4DCA47F
:10446000CEA58DA611A85BACACAC0AB0D3B399D2E3
:1044700069D40ED6FCD7B7D897D911241FBECFEF79
:10448000D1E2DEBFCDBF16E0A0E0B2E0E4EEFDEB8E
:1044900001E00BBF02C007900D92A636B107D9F715
:1044A0001DE1A6E6B6E001C01D92A337B107E1F712
:1044B00014E4CAE7D4E400E006C022970109FE0133
:1044C0000BBF0E945EDEC433D10780E00807A9F766
:1044D0000E9433490C94F0DE0C940000A0E3B0E09D
:1044E000E4E7F2E20C9429DE298F3A8F4B8F5C8F40
:1044F0006D8F7E8F8F8F98A3A98ABA8ACB8ADC8A28
:10450000ED8AFE8A0F8B188F098D1A8D2B8D3C8DAD
:1045100009A31AA32BA33CA3680179018FEF9FEF96
:10452000A0E0B0E0C822D922EA22FB22890122279A
:10453000332709A71AA72BA73CA709891A892B8912
:104540003C890DA31EA32FA338A748015901882237
:104550009922AA22BB22290166247724C501B4012D
:10456000A70196010E9498DD6DA77EA78FA798AB43
:10457000C301B2010E9498DD6B017C01C501B40149
:1045800029A53AA54BA55CA50E9498DD4B015C01CD
:10459000C301B2010E9498DDAB01BC01C80CD91C5B
:1045A000EA1CFB1C0DA51EA52FA538A9C901AA2729
:1045B000BB27C80ED91EEA1EFB1EC814D904EA0484
:1045C000FB0420F4405050406F4F7F4FC701AA2793
:1045D000BB27840F951FA61FB71F8D839E83AF83B4
:1045E000B8877601DD24CC244DA55EA56FA578A9FA
:1045F00060707070C40ED51EE61EF71EC982DA8286
:10460000EB82FC821C2D0A818B804C808D878E81F1
:104610008E878F818F878885888B2D893E894F89EA
:10462000588D69A17AA18BA19CA10E9498DD6B0194
:104630007C012D8D3E8D4F8D58A16DA17EA18FA146
:1046400098A50E9498DDDC01CB01C80ED91EEA1E98
:10465000FB1E8D859E85AF85B8898C0D9D1DAE1D79
:10466000BF1D8D879E87AF87B88B682F7E85212FD2
:10467000302F482D542D8F859889E096E0E10C94D9
:1046800045DE0F93CF93DF93CDB7DEB760970FB6BC
:10469000F894DEBF0FBECDBF002309F456C02987B2
:1046A0003A874B875C876D877E878F87988B20E260
:1046B000201B8D859E85AF85B889AC01BD01121682
:1046C000B4F0770F440B542FBA014D835E836F8390
:1046D0007887332727FD3095309521953F4F04C0CB
:1046E000B595A795979587952A95D2F722C0002E64
:1046F00004C075956795579547950A94D2F74D83F1
:104700005E836F83788704C0880F991FAA1FBB1F21
:104710002A95D2F749855A856B857C8504C07695A4
:104720006795579547950A95D2F7842B952BA62B1D
:10473000B72B89839A83AB83BC8329813A814B81D0
:104740005C816D817E818F81988560960FB6F8942B
:10475000DEBF0FBECDBFDF91CF910F910895A8E4CA
:10476000B0E0E5EBF3E20C9428DEF50129A33AA3CF
:104770004BA35CA36DA37EA38FA398A7A98EFA8FEA
:10478000CB8EDC8EED8EFE8E0F8F18A38DA09EA09B
:10479000AFA0B8A4B7FE67C02195B1E0121608F02B
:1047A000B0E03195A1E0131608F0A0E0B32EBB1ADB
:1047B000BB2D882483943B1508F08824A8294195B3
:1047C00031E0141608F030E0B42EBA1AAB2D88246C
:1047D00083944B1508F088243829519541E015162B
:1047E00008F040E0452E431A31E0541508F030E05F
:1047F000432B619531E0161608F030E0862E841ABE
:1048000041E0681508F040E0342B719541E017163F
:1048100008F040E0572F531B31E0751708F030E0E7
:10482000432B819531E0181608F030E0682F641BA7
:10483000462F61E0841708F060E0362B9195931BBA
:1048400029A3BAA3ABA34CA28DA25EA34FA398A7A2
:104850008FEF9FEFAFEFBFEF25968CAF9DAFAEAF61
:10486000BFAF259706C025961CAE1DAE1EAE1FAE6F
:1048700025978D8D9E8DAF8DB8A1B7FF68C0259609
:104880002CAD3DAD4EAD5FAD259720953095409553
:10489000509525962CAF3DAF4EAF5FAF2597E19574
:1048A00081E01E1608F080E0F19591E01F1608F0F7
:1048B00090E04F2F481B81E0F41708F080E0982B20
:1048C000C19481E01C1408F080E06C2D691B91E01C
:1048D000C61608F090E0892BD19491E01D1408F0E1
:1048E00090E05D2D581B81E0D51608F080E0982BF4
:1048F000E19481E01E1408F080E03E2D391B91E028
:10490000E31608F090E0892BF19491E01F1408F071
:1049100090E02F2D281B81E0F21608F080E0982B04
:10492000019581E0101608F080E0702F791B972F19
:1049300071E0091708F070E0872B1195181BE98FBB
:104940004A8F6B8F5C8F3D8F2E8F9F8F18A3798D31
:104950006A8D5B8D4C8D3D8D2E8D9F8D88A1E9A13B
:10496000E98BEAA1EA8BEBA1EB8BECA1EC8BEDA13F
:10497000ED8BEEA1EE8BEFA1EF8BE8A5E88F7987A9
:104980006A875B874C873D872E879F87888B8984C2
:104990009A84AB84BC848D859E85AF85B889E9886F
:1049A000FA880B891C89EDAAFEAA0FAB18AFCD8837
:1049B000DE88EF88F88C0097A105B10509F0BFC328
:1049C000C814D904EA04FB0408F04EC100E08016C4
:1049D00000E0900601E0A00600E0B00660F41FEFE2
:1049E00081169104A104B10409F098F480E090E0EC
:1049F000A0E0B0E017C020E0821620E0920620E0A0
:104A0000A20621E0B20650F480E190E0A0E0B0E020
:104A100009C088E090E0A0E0B0E004C088E190E048
:104A2000A0E0B0E0B501A401082E04C0769567951A
:104A3000579547950A94D2F7FA01E25AFD4F208123
:104A400040E250E060E070E0481B590B6A0B7B0BC2
:104A5000421B510961097109411551056105710533
:104A6000A1F1042E04C0880C991CAA1CBB1C0A943A
:104A7000D2F797018601042E04C0000F111F221FD8
:104A8000331F0A94D2F780E290E0841B950BCDA8E7
:104A9000DEA8EFA8F8AC04C0F694E794D794C794C6
:104AA0008A95D2F7C02AD12AE22AF32A0DA91EA993
:104AB0002FA938AD04C0000F111F221F331F4A95C4
:104AC000D2F70DAB1EAB2FAB38AF25016624772490
:104AD000950184012070307009AB1AAB2BAB3CAB55
:104AE000C701B601A30192010E94EADD2DA73EA7EE
:104AF0004FA758AB69A77AA78BA79CA7C701B60198
:104B0000A30192010E94EADDCA01B90129A93AA9CB
:104B10004BA95CA90E9498DDAB01BC0109A51AA5AF
:104B20002BA53CA57801DD24CC240DA91EA92FA915
:104B300038ADC901AA27BB27C82AD92AEA2AFB2AE5
:104B40000DA51EA52FA538A9C416D506E606F7069D
:104B500038F5015010402040304009A71AA72BA774
:104B60003CA7C80CD91CEA1CFB1CC814D904EA04D5
:104B7000FB04D0F0C416D506E606F706A8F40DA58A
:104B80001EA52FA538A9025010402040304009A78B
:104B90001AA72BA73CA7C80CD91CEA1CFB1C04C0F5
:104BA00009A71AA72BA73CA7C41AD50AE60AF70A31
:104BB000C701B601A30192010E94EADD2DA73EA71D
:104BC0004FA758AB69AF7AAF8BAF9CAFC701B601A7
:104BD000A30192010E94EADDCA01B90129A93AA9FB
:104BE0004BA95CA90E9498DD6B017C0149AD5AADCF
:104BF0006BAD7CAD9A01112700274DA95EA96FA965
:104C000078AD60707070042B152B262B372B8DA57B
:104C10009EA5AFA5B8A90C151D052E053F05C0F42E
:104C20000197A109B109080D191D2A1D3B1D081581
:104C300019052A053B0560F00C151D052E053F05DD
:104C400038F48DA59EA5AFA5B8A90297A109B10911
:104C500009A51AA52BA53CA57801DD24CC24C82ADA
:104C6000D92AEA2AFB2AB9C481149104A104B10407
:104C700051F461E070E080E090E0A50194010E94B1
:104C8000EADD49015A0110E0811610E0910611E0B9
:104C9000A10610E0B10660F42FEF82169104A10482
:104CA000B10409F098F480E090E0A0E0B0E017C013
:104CB00030E0831630E0930630E0A30631E0B3061F
:104CC00050F480E190E0A0E0B0E009C088E090E01E
:104CD000A0E0B0E004C088E190E0A0E0B0E0B50161
:104CE000A401082E04C076956795579547950A94B8
:104CF000D2F7FA01E25AFD4F2081AC01BD01420F0B
:104D0000511D611D711D80E290E0A0E0B0E0841BA8
:104D1000950BA60BB70B51F4C818D908EA08FB0885
:104D2000F1E04F2E512C612C712C28C1082E04C0AB
:104D3000880C991CAA1CBB1C0A94D2F79701860107
:104D4000042E04C036952795179507950A94D2F737
:104D500009AB1AAB2BAB3CAB97018601082E04C004
:104D6000000F111F221F331F0A94D2F70DA71EA791
:104D70002FA738ABEDA8FEA80FA918AD04C0169553
:104D80000795F794E7944A95D2F7B801A7010DA5C6
:104D90001EA52FA538A9042B152B262B372B0DA7C5
:104DA0001EA72FA738ABEDA8FEA80FA918AD04C009
:104DB000EE0CFF1C001F111F8A95D2F7EDAAFEAA68
:104DC0000FAB18AF2501662477249501840120706C
:104DD000307009AF1AAF2BAF3CAF69A97AA98BA984
:104DE0009CA9A30192010E94EADD29A73AA74BA73B
:104DF0005CA76B017C0169A97AA98BA99CA9A30175
:104E000092010E94EADDCA01B90129AD3AAD4BAD6C
:104E10005CAD0E9498DDAB01BC017601DD24CC24A1
:104E20000DA51EA52FA538A9C901AA27BB27C82AE9
:104E3000D92AEA2AFB2A09A51AA52BA53CA5C4163E
:104E4000D506E606F70638F5015010402040304000
:104E500009AB1AAB2BAB3CABC80CD91CEA1CFB1C36
:104E6000C814D904EA04FB04D0F0C416D506E6063B
:104E7000F706A8F409A51AA52BA53CA502501040D9
:104E80002040304009AB1AAB2BAB3CABC80CD91C53
:104E9000EA1CFB1C04C009AB1AAB2BAB3CABC41A1D
:104EA000D50AE60AF70AC701B601A30192010E94DA
:104EB000EADD29A73AA74BA75CA721966CAF7DAF87
:104EC0008EAF9FAF2197C701B601A30192010E9447
:104ED000EADDCA01B90129AD3AAD4BAD5CAD0E9426
:104EE00098DD8B019C0121964CAD5DAD6EAD7FAD23
:104EF0002197DA01992788274DA55EA56FA578A986
:104F000060707070842B952BA62BB72B49A55AA5E2
:104F10006BA57CA580179107A207B307F0F4415059
:104F2000504060407040880D991DAA1DBB1D88151A
:104F30009905AA05BB0588F080179107A207B3075A
:104F400060F449A55AA56BA57CA54250504060402D
:104F50007040880D991DAA1DBB1D6C017D01C01AF2
:104F6000D10AE20AF30A09A91AA92BA93CA9380116
:104F700055244424442A552A662A772A8501222763
:104F800033270DA71EA72FA738AB950184012070EA
:104F9000307009AF1AAF2BAF3CAFC701B6012DA5DA
:104FA0003EA54FA558A90E94EADD29A73AA74BA71D
:104FB0005CA769AB7AAB8BAB9CABC701B6012DA5E7
:104FC0003EA54FA558A90E94EADDCA01B90129AD45
:104FD0003AAD4BAD5CAD0E9498DDAB01BC0109A9B7
:104FE0001AA92BA93CA97801DD24CC240DA91EA95E
:104FF0002FA938ADC901AA27BB27C82AD92AEA2A6E
:10500000FB2A09A51AA52BA53CA5C416D506E606BC
:10501000F70638F5015010402040304009AB1AAB7C
:105020002BAB3CABC80CD91CEA1CFB1CC814D90424
:10503000EA04FB04D0F0C416D506E606F706A8F489
:1050400009A51AA52BA53CA50250104020403040D0
:1050500009AB1AAB2BAB3CABC80CD91CEA1CFB1C34
:1050600004C009AB1AAB2BAB3CABC41AD50AE60A99
:10507000F70AC701B6012DA53EA54FA558A90E9464
:10508000EADD29A73AA74BA75CA721966CAF7DAFB5
:105090008EAF9FAF2197C701B6012DA53EA54FA5A5
:1050A00058A90E94EADDCA01B90129AD3AAD4BAD5C
:1050B0005CAD0E9498DD8B019C0121964CAD5DADED
:1050C0006EAD7FAD2197DA01992788274DA95EA99A
:1050D0006FA978AD60707070842B952BA62BB72BC1
:1050E00049A55AA56BA57CA580179107A207B30710
:1050F000D0F44150504060407040880D991DAA1D69
:10510000BB1D88159905AA05BB0568F08017910796
:10511000A207B30740F449A55AA56BA57CA5425048
:1051200050406040704009A91AA92BA93CA97801F8
:10513000DD24CC24C42AD52AE62AF72A51C2C8166F
:10514000D906EA06FB0608F438C2803010E0910761
:1051500011E0A10710E0B10758F48F3F9105A105B8
:10516000B10509F090F400E010E020E030E016C056
:10517000803020E0920720E0A20721E0B20750F43F
:1051800000E110E020E030E009C008E010E020E09D
:1051900030E004C008E110E020E030E0AC01BD01E7
:1051A000002E04C076956795579547950A94D2F7D7
:1051B000FA01E25AFD4F4081040F111D211D311DDE
:1051C00040E250E060E070E0401B510B620B730B5B
:1051D000A1F48C159D05AE05BF0508F4F5C1EDA839
:1051E000FEA80FA918AD442455243201E814F9048F
:1051F0000A051B0508F0EBC1E3C1342E2C013D016B
:1052000004C0440C551C661C771C4A95D2F7D50186
:10521000C401002E04C0B695A795979587950A946A
:10522000D2F7482A592A6A2A7B2AA5019401032C1D
:1052300004C0220F331F441F551F0A94D2F729AF11
:105240003AAF4BAF5CAFB701A601002E04C0769514
:105250006795579547950A94D2F749AB5AAB6BAB14
:105260007CABC701B601032C04C0660F771F881FF3
:10527000991F0A94D2F76DA77EA78FA798AB8DA927
:105280009EA9AFA9B8AD04C0B695A7959795879587
:105290000A95D2F74DA55EA56FA578A9482B592B85
:1052A0006A2B7B2B4DA75EA76FA778AB4301AA247F
:1052B000BB24930182012070307021960CAF1DAF8A
:1052C0002EAF3FAF219769A97AA98BA99CA9A50107
:1052D00094010E94EADD29A73AA74BA75CA76B01BE
:1052E0007C0169A97AA98BA99CA9A50194010E94B6
:1052F000EADDCA01B90121962CAD3DAD4EAD5FADE1
:1053000021970E9498DDDC01CB017601DD24CC24BD
:105310000DA51EA52FA538A9A90166277727C42AA0
:10532000D52AE62AF72A09A51AA52BA53CA5C81651
:10533000D906EA06FB0638F50150104020403040FF
:1053400009AB1AAB2BAB3CABC40CD51CE61CF71C51
:10535000C414D504E604F704D0F0C816D906EA064A
:10536000FB06A8F409A51AA52BA53CA502501040E0
:105370002040304009AB1AAB2BAB3CABC40CD51C66
:10538000E61CF71C04C009AB1AAB2BAB3CABC81A2C
:10539000D90AEA0AFB0AC701B601A50194010E94D5
:1053A000EADD29A73AA74BA75CA729966CAF7DAF8A
:1053B0008EAF9FAF2997C701B601A50194010E9446
:1053C000EADDCA01B90121962CAD3DAD4EAD5FAD10
:1053D00021970E9498DD4B015C0129964CAD5DAD93
:1053E0006EAD7FAD29979A01112700278DA59EA547
:1053F000AFA5B8A9A070B070082B192B2A2B3B2B96
:1054000089A59AA5ABA5BCA5081519052A053B05D4
:10541000E0F40197A109B109040D151D261D371DE2
:10542000041515052605370580F0081519052A0508
:105430003B0558F489A59AA5ABA5BCA50297A1097F
:10544000B109040D151D261D371DB901A801481904
:1054500059096A097B094DA75EA76FA778AB09A90F
:105460001AA92BA93CA97801DD24CC24C82AD92A61
:10547000EA2AFB2AFFEF8F2EFFEF9F2EA12CB12CE3
:105480008C209D20AE20BF2087012227332709A72B
:105490001AA72BA73CA749AC5AAC6BAC7CAC2FEF3E
:1054A0003FEF40E050E0422253226422752229ADB2
:1054B0003AAD4BAD5CAD8A012227332709AB1AAB5D
:1054C0002BAB3CABC501B401A30192010E9498DD56
:1054D00069AF7AAF8BAF9CAFC501B40129A93AA9D6
:1054E0004BA95CA90E9498DD4B015C0169A57AA5D6
:1054F0008BA59CA5A30192010E9498DD2B013C0184
:1055000069A57AA58BA59CA529A93AA94BA95CA94F
:105510000E9498DDAB01BC01840C951CA61CB71C35
:1055200009AD1AAD2BAD3CADC901AA27BB27880E2A
:10553000991EAA1EBB1E84149504A604B70420F469
:10554000405050406F4F7F4FC501AA27BB27840FA3
:10555000951FA61FB71F0DA51EA52FA538A90817B3
:1055600019072A073B0718F180179107A207B3070D
:10557000A1F554019924882489AD9AADABADBCAD99
:10558000A070B070880E991EAA1EBB1E4DA95EA900
:105590006FA978AD032C04C0440F551F661F771FF9
:1055A0000A94D2F7481559056A057B05B0F40894AA
:1055B000C108D108E108F10810C044245524320183
:1055C000CC24DD2476010CC044245524320181E032
:1055D000C82ED12CE12CF12C03C0442455243201D7
:1055E000FE01319688E0DF011D928A95E9F7C982B4
:1055F000DA82EB82FC824D825E826F8278862C2D6D
:105600003A814B815C81642D7E818F8198852596BE
:10561000ECACFDAC0EAD1FAD2597E114F104010516
:10562000110509F456C02195E1E0121608F0E0E0FA
:105630003195F1E0131608F0F0E0032F0E1BE1E0C6
:10564000301708F0E0E0FE2B4195E1E0141608F079
:10565000E0E0142F1F1B31E0411708F030E0E32B8E
:105660005195F1E0151608F0F0E0B52FBE1B31E0C2
:105670005B1708F030E0F32B6195E1E0161608F0B7
:10568000E0E0462E4F1A31E0641508F030E0E32BDD
:105690007195F1E0171608F0F0E0A72FAE1B31E08E
:1056A0007A1708F030E0F32B8195E1E0181608F046
:1056B000E0E0F82EFF1AFF2D31E08F1508F030E002
:1056C000E32B9195302F412F5B2F642D7A2F8F2F55
:1056D0009E1BC85BDF4FE1E10C9444DEFA01DC0164
:1056E00002C005900D9221503040D8F70895F894EB
:1056F0002091A8063091A9068091A6069091A70650
:10570000821B930B7894089580939F06089581E0FF
:1057100080939D06089580919F06089580919E062E
:1057200008952091A8063091A90681E02115310540
:1057300009F080E00895482F8091A8069091A9066D
:105740006091A6067091A70686179707E8F4209146
:10575000A8063091A9068091AA069091AB06820F07
:10576000931F0E94C3DDE091AC06F091AD06E80FF7
:10577000F91F40838091A8069091A9060196909305
:10578000A9068093A806089581E0E6EAF6E08087FE
:1057900008951092A9061092A8061092AB061092D6
:1057A000AA061092AE061092AF061092A1061092B1
:1057B000A2061092A3061092A4061092A0061092C0
:1057C0009F0610929E0610929806109299061092CB
:1057D0009A0610929B0610928306109297061092DA
:1057E000960610929506089581E0209195063091D5
:1057F00096062630310509F080E008956091A106F3
:105800007091A2068091A3069091A406089510922B
:10581000A1061092A2061092A3061092A406089563
:105820004F925F926F927F928F929F92AF92BF92B0
:10583000CF92DF92EF92FF920F931F93CF93DF935C
:10584000CDB7DEB7C656D0400FB6F894DEBF0FBE58
:10585000CDBFCE018D5B9F4F0E949F83A7E6B6E030
:10586000FE01ED5BFF4F84E101900D928150E1F765
:10587000CE01019669E77AE145E00E94A2D5CE010A
:1058800001960E94EBD58093660687E696E060E07D
:1058900070E00E940555FC012081318142815381D5
:1058A0006B962CAF3DAF4EAF5FAF6B9787E696E040
:1058B00061E070E00E940555FC0120813181428148
:1058C00053816F962CAF3DAF4EAF5FAF6F9787E6BA
:1058D00096E062E070E00E940555FC012081318174
:1058E00042815381A3962CAF3DAF4EAF5FAFA397DC
:1058F00087E696E063E070E00E940555FC01808039
:105900009180A280B38083E00E94CE816B017C01F4
:1059100087E696E064E070E00E940555FC01608136
:105920007181828193810E9431DC2B013C0184E0F2
:105930000E94CE819B01AC0100D000D00DB71EB7F4
:105940000F5F1F4FC701B601A4962FAFA497A5966E
:105950003FAFA597A6964FAFA697A7965FAFA7971D
:105960000E9403DCDC01CB01880E991EAA1EBB1E1F
:10597000C301B201A4962FADA497A5963FADA597FC
:10598000A6964FADA697A7965FADA7970E94E1DABE
:105990000E94FEDBDC01CB01F80180839183A283AE
:1059A000B383CE018F966B964CAD5DAD6EAD7FAD82
:1059B0006B976F960CAD1DAD2EAD3FAD6F97A39657
:1059C000CCACDDACEEACFFACA3970E94C9540F90F9
:1059D0000F900F900F90CE018F9648E052E060E05C
:1059E00070E00E943A848EEB99E00E943FAA909367
:1059F0007E0680937D068EE69AE00E943FAA9093F1
:105A0000800680937F068FE19CE00E943FAA9093DE
:105A10007C0680937B0680919C06882391F08EEB18
:105A200099E060E070E00E946EA98EE69AE060E086
:105A300070E00E946EA98FE19CE060E070E00E943F
:105A40006EA9DE015B96FE01BF9684E101900D9286
:105A50008150E1F7CE014B9662E070E00E9405555F
:105A60004C0182E00E94CE810E94FEDB26E930E0FC
:105A700040E050E00E9498DDDC01CB01F40180831E
:105A80009183A283B383DE011796FE017B9684E1A6
:105A900001900D928150E1F7CE01079660E070E031
:105AA0000E9405554C0180E00E94CE8120E030E04C
:105AB0004DED52EC0E9435DD0E94FEDBDC01CB0196
:105AC000F40180839183A283B383CE01079661E0C2
:105AD00070E00E9405554C0181E00E94CE8120E0DB
